:020000041000EA
:1000000000B5324B212058609868022188439860DF
:10001000D860186158612E4B002199600221596106
:100020000121F02299502B49196001219960352056
:1000300000F044F80222904214D00621196600F024
:1000400034F8196E01211966002018661A6600F04E
:100050002CF8196E196E196E052000F02FF8012189
:100060000842F9D1002199601B49196000215960AB
:100070001A491B48016001219960EB211966A021F2
:10008000196600F012F800219960164914480160C1
:100090000121996001BC002800D000471248134993
:1000A000086003C880F30888084703B5996A0420EC
:1000B0000142FBD001200142F8D103BD02B5186610
:1000C0001866FFF7F2FF186E186E02BD00000240BE
:1000D000000000180000070000035F00212200005C
:1000E000F4000018222000A00001001008ED00E03C
:1000F00000000000000000000000000074B24E7A12
:1001000000200420F7010010C3010010C5010010F9
:10011000C1010010C1010010C1010010C101001097
:10012000C1010010C1010010C1010010C701001081
:10013000C1010010C1010010C9010010CB01001065
:10014000CD010010CD010010CD010010CD01001037
:10015000CD010010CD010010CD010010CD01001027
:10016000CD010010CD010010CD010010CD01001017
:10017000CD010010CD010010CD010010CD01001007
:10018000CD010010CD010010CD010010CD010010F7
:10019000CD010010CD010010CD010010CD010010E7
:1001A000CD010010CD010010CD010010CD010010D7
:1001B000CD010010CD010010CD010010CD010010C7
:1001C00000BE00BE00BE00BE00BE00BE00F04BF888
:1001D000103800BEF2EB8871B0940010D09400107B
:1001E0003402001090A31AE700202149086006C8D5
:1001F00081F3088810471F48006800282FD10DA4FC
:100200000ECC002902D000F012F8F9E71A491B4A77
:10021000002000E001C19142FCD1194988471949E9
:1002200088471949884700BEFDE701C901C29A42C3
:10023000FBD37047D0940010C0000020FC0C0020BD
:100240000CA1001000000420000004200CA10010EC
:1002500000100420001004200000000070470B482C
:1002600003F084FE0047EFF30580C0B27047000042
:1002700008ED00E0000000D0000D002054820120B5
:10028000951F001051060010BD20001057560000A9
:1002900006005250ABB360537C92001006005250DF
:1002A000861C03028C920010060052505422A29D1C
:1002B0009492001005005250DE65F4680CA1001005
:1002C000F8B5C0460448054B10B5834203D0044B33
:1002D000002B00D0984710BDFC0C0020FC0C002027
:1002E0000000000006480749091A8910CB0F591869
:1002F00010B5491003D0044B002B00D0984710BD17
:10030000FC0C0020FC0C00200000000010B5074C85
:100310002378002B09D1FFF7D5FF054B002B02D026
:10032000044800E000BF0123237010BD080E002028
:1003300000000000908B0010054B10B5002B03D07F
:100340000449054800E000BFFFF7CCFF10BDC046E0
:10035000000000000C0E0020908B0010F0B5C64687
:10036000204D214B00B51A682B8853401B041F4AAF
:100370001B0C13601E4B1E8898461E4B1F881E4B7D
:1003800039001888301AC01903F01EFE1B4B1C4A96
:1003900019800904C90B8B5A1A49701C8C46634496
:1003A000DC0FE41873009A5A64106244D30F9B1850
:1003B0005B10E418144B39001C6003F005FE434643
:1003C000198080231B019C46104B64441A6801234A
:1003D0009340A4220E49A410AF342C808B5004BC4F
:1003E0009046F0BD760300200C0005400C1005403F
:1003F000827F012074030020720300207E7F012091
:10040000BC17002000F8FFFF687F01204C7F01200F
:1004100000000540D023F0B5D6464F4646461B06A1
:100420005C68F823C0B59B001C408AB0210061487D
:1004300004F0EAFE802C00D1A7E000D86EE0802313
:100440005B009C4200D1AFE0DB189C4200D076E01C
:100450000821092000F0DCFA574804F04DFE574D02
:10046000574C2A88D3009B1A9B00E31819691B8BF1
:100470000A88D3180B802A88D3009B1A9B00E318A4
:100480001969D88A0A88824257D89B8A9A4200D230
:100490000B804C4E4F27300007F0CEFD2A8805A870
:1004A00053425A41484B5242994623693A401B886D
:1004B000494600932032230003F014FD434B05AA64
:1004C0009A460023514602930193009330009846C8
:1004D00007F06CFE2A88E16A013A53425A41230030
:1004E000098852423A400091203249461C3305A8FF
:1004F00003F0F8FC4346029301930833009305AAE6
:1005000000235146300007F051FE300007F0ECFCAC
:100510000AB01CBC90469946A246F0BD202C1FD0C4
:10052000402C0CD12A4804F0E7FD0821062000F0F9
:100530006FFA224D224C2A889EE70880A9E70821FD
:10054000072000F065FA0821082000F061FA082170
:10055000052000F05DFA0821092000F059FAE4E7CF
:100560000821052000F054FA1A4804F0C5FD134D87
:10057000134C2A88D3009B1A9B00E31819691B8B24
:100580000A88D31A0B802A8876E70720082100F012
:100590003FFA114804F0B0FD0123084D084C2A88A9
:1005A00001321A402A8067E70820082100F030FA5B
:1005B0000A48EFE7908B0010C08B0010847F012069
:1005C000780300209C130020008C00100C8C00107D
:1005D000948B0010AC8B0010D88B0010EC8B0010AB
:1005E00004228021144B70B51A60144A4900136824
:1005F0000B42FCD0124D54682888124B4200A4B222
:10060000D452114B0130198803F0DEFC0F4B2980C6
:100610009C46FA236444A4B2DB009C4206D9002223
:100620000121032000F0A2F9012070BD0122002168
:10063000032000F09BF9F7E700E0044000C004400D
:10064000807F0120BC1700207403002018FCFFFFEE
:10065000F0B5DE4657464E4645460024E0B57D4B94
:100660008DB01C60D02704F0DBFD192000F0F0F9FC
:1006700080233F06BB628033BB62E03BBB62E13359
:10068000FF33BB62C13BFF3BBB623C3B7B6204333D
:100690007B6208337B6298468023DB04BB62802345
:1006A0009B047B6204211020994600F047F96A4BB5
:1006B0006A4E1C609A466A4B6A4918009B46346031
:1006C00007F0D0FA0321002000F038F903210120BF
:1006D00000F034F900220121002000F047F9002247
:1006E0000121012000F042F906AB1D003C22280048
:1006F0000023594607F052FC29005B4B059525C99C
:1007000025C31A000B68594813608B88584D938095
:100710008B7993714B467B6100F03EFF554804F0A6
:10072000EBFC554804F0E8FC544804F0E5FC316863
:10073000534804F069FD53465248196804F064FDBB
:10074000FA20800000F028FF4B46BB6107F06EFAEC
:100750001F211A2000F0F2F8002200211A2000F0D8
:1007600005F900211A2000F05FF9E022464BD20182
:100770001B6846481340464A01271360454B1A88B8
:10078000454B198804F040FD444A3168944642467E
:100790008B005B1803209B0063441C609C60DC6042
:1007A0001D615A603A001860186882438020400139
:1007B00003431A603A4B3B4A1B6804206B401B04FE
:1007C0001B0C13603B008B401900A423334AD1500B
:1007D0000121002200F0CAF800F0DEFB059B019425
:1007E0000293314B009316225242D31700F0DEFCE5
:1007F0000A20002100F05CFE33682C499F402C4BFE
:1008000004201F6001F002FE0121042001F0DCFD44
:10081000FFF700FE274C012223000821062000F0EC
:10082000BDF8230001220821072000F0B7F82300BB
:1008300001220821082000F0B1F82300012208213C
:10084000092000F0ABF8230001220821052000F068
:10085000A5F8FEE7387F0120041300204C7F01201B
:100860009004002040420F009C13002088130000D9
:100870005F050000088F0010308F0010448F0010BB
:10088000588F0010688F001000C004407C8F00104B
:1008900000D00440827F0120807F012000000540BD
:1008A0000C0005400C100540E10500105D03001030
:1008B000A82005401504001010B5024807F0C0FA42
:1008C00010BDC0469C130020D0231B06F0B51D6848
:1008D000C6466B1E9D416B4230251D40144B0024C3
:1008E0009C46144B07270F26984600B56544E2083E
:1008F000130008339B0059593B0023409B00D9400B
:1009000031400FD0080098403C320B4B9200D05041
:10091000D02342461B061B689B009B58002B01D02E
:100920002000984701341E2CE1D104BC9046F0BD54
:10093000004101405C0E002000400140094A830054
:1009400094464022634410B51C68C0006240C02435
:1009500014408022520113431C60034B9C466044A8
:10096000416010BD04C00140004001400A4B8000BE
:100970009C4604236044002901D00C230821002A4E
:1009800000D10B00026853400C221A4080235B0107
:10099000184302607047C04604C0014070B5D024BF
:1009A00024062468C608651EAC41302564422C40EC
:1009B000134DAC46072505403000AD00A9403C3042
:1009C000104D64448000B6004151A419002A12D091
:1009D0008022920114432160D022120612680A4933
:1009E000920053500D20094901F010FD01210D2006
:1009F00001F0EAFC70BDC022920114432160EBE7D4
:100A000000410140004001405C0E0020C908001078
:100A10000722024092009140C308024A3C339B00E7
:100A20009950704700400140084B80009C4660444C
:100A3000002905D080239B011843402303607047A1
:100A4000C0239B01184340230360F8E704C0014022
:100A50000123D0228340120693629361094A8300E6
:100A60009446402263441968C0004A40C0211140A6
:100A70008022520113431960034B9C4605236044B6
:100A80004360704704C0014000400140F8B5EFF3F7
:100A9000108772B60D4E3368002BFCD0BFF35F8F0A
:100AA0000725CB08C01801230D40AB401D0004787A
:100AB000254007D123430370BFF35F8F356087F371
:100AC0001088F8BD100001F0FBFAC0462C0100D0E0
:100AD000F8B5CE4647468C4680B5EFF3108872B61F
:100AE000214D2C68002CFCD0BFF35F8F9A422CD88C
:100AF0000721012511408D40D4080419267835427C
:100B00001FD007218946063909E04D460F001540E0
:100B1000AF40D408041926783D00374211D0013285
:100B20009342F2D201204042BFF35F8F00220E4B6E
:100B30001A6088F3108800280FDB0CBC9046994699
:100B4000F8BD354325701000EEE7BFF35F8F00233B
:100B50002B6088F31088012040426346002BECD0C4
:100B6000089801F0ADFAC0462C0100D0024B18687D
:100B70008007C00F7047C04600C006400021044BEC
:100B8000044ABFF35F8F02C39342FAD17047C04655
:100B9000000100D0800100D0044A1078431CDBB271
:100BA000172B00D9102313707047C046B0030020E4
:100BB00000B5054B83B00100009318221F230348A2
:100BC000FFF786FF03B000BD888F001008130020D8
:100BD00083680B4810B584466144624409011201E0
:100BE0009A18591854684B6801209C4201D802D0C9
:100BF0000020C0B210BD12680B689A42F9D8F7E71E
:100C0000FFFFFF0F10B508000B690C009847002884
:100C100002D02068616810BDE06000210020FAE782
:100C20000A4B1968EFF3108072B60A68002AFCD0EC
:100C3000BFF35F8F1B68BFF35F8F00221A6080F3E2
:100C4000108840BF002000217047C046487F012027
:100C5000F8B5454657464E46DE46E0B514000DAAA7
:100C600012781D000CAB92461B78026881469046B4
:100C7000002B13D1977B002F4AD040467E0012688C
:100C8000F619033E921951783B008173002900D177
:100C9000C173002191705170117003E01F005E005C
:100CA000F618033E2E4A94464A4692686344944698
:100CB0001B010A9A63449A600B9A1C605D60DA60BB
:100CC000434600221B689B199A705A701A7043465B
:100CD0005B7B9B46002B2BD043463A0098685946D5
:100CE0005B6898475B4642465B005B44033B126887
:100CF000002814D0D31896195A46B2701A78002AD0
:100D000000D072701F705A4643465A73BB4511D0CB
:100D100038003CBC90469946A246AB46F8BDD31875
:100D200096199F703278002A00D05A705B46337053
:100D300043465F734B462200187D2B0000F03AFDBE
:100D4000041E07D05346002B04D14B4639001868C7
:100D500001F0E2F80E9B002BDAD01C70D8E7C046F9
:100D6000FFFFFF0FF0B5DE4657464E4645460023CF
:100D7000E0B58DB00A936D4B8200D45800239B469A
:100D80000B9000F0B5FC6268EFF3108572B6136843
:100D9000002BFCD0BFF35F8F23689C465B7B99469A
:100DA000002B00D16BE0A268614B90464B441B01C5
:100DB000984443461E685F6832003B00121A8B411C
:100DC000002B65DD3B0032000B9800F0F3FC0023A4
:100DD000002208920993002300279A466368BFF314
:100DE0005F8F5A461A6085F310885346002B08D14E
:100DF0000028C6D10DB03CBC90469946A246AB46F1
:100E0000F0BD0A9B390018024B461843D047626870
:100E100006900791EFF3108872B656464546136860
:100E2000002BFCD0B246A846BFF35F8F0699079A05
:100E3000131E49DB194302D02369002B5FD12368BD
:100E4000DA7B002A07D051008A1819688C46494677
:100E50006244033A51704A46DA73E2684B4694465C
:100E6000013B63441A7801321A705B462361636860
:100E7000BFF35F8F5A461A6088F3108881E700231A
:100E8000002208920993002300279A460020A5E734
:100E9000002B01D1002A95D10021604600F05EFFB1
:100EA00043461A685B680892099343469B689A46D2
:100EB0004346DF68E3684B44013B1B780A931B02FF
:100EC00003432361002089E72369002BB7D0089DE5
:100ED000099E6D1A96412A003300089D099E9E4284
:100EE00018D81BD05946049101210391494602911B
:100EF0005146019700912000FFF7AAFEB5E700F0E8
:100F0000F7FB069A079B12184B41994202D8E9D188
:100F10009042E7D901225242D317E3E70899914260
:100F2000E0D901225242D317DCE7C046287F0120D6
:100F3000FFFFFF0F10B5124C6368002B04D00A218D
:100F4000104800F0CBFC10BD23000F4A1021206890
:100F500000F026FD032000F0BFFB032000F09EFC04
:100F60000A49032000F0E0FBFFF716FE084B9C4601
:100F7000032360442375074B80006060DC60DEE77C
:100F8000B4030020487F0120D10B0010650D001034
:100F900040000034287F012000487047B40300203F
:100FA000F0B557464546DE464E46E0B585B0009260
:100FB000019310AB1B7800270393002380469A46C9
:100FC00043465A68EFF3108972B61368002BFCD0C1
:100FD000BFF35F8F43461D68AC7B002C4FD066008B
:100FE00036192B68033E9B195A78AA73002A00D140
:100FF000EA7342469F705F701F7092684E4B944632
:101000000099019AE3181B01634419605A600E9A13
:101010009A600F9ADA602B689B199F705F701F703F
:101020006B7B9B46002B42D022001900A8686B689E
:1010300098475B465B005B44033B2A6800282DD041
:10104000D31896195A46B2701A78002A00D07270D6
:101050001C705B466B735C452AD04346DB681B19EA
:10106000013B187843465B68BFF35F8F1F6089F3CD
:1010700010885346002B2AD10002204307E05B680A
:10108000BFF35F8F1C6089F310880120404205B0D8
:101090003CBC90469946A246AB46F0BDD318961983
:1010A0009C703278002A00D05A705B4633706C73A3
:1010B0004346187D009A019B00F07CFB8246002885
:1010C000CBD043462100186800F026FFC5E7039BFC
:1010D000002B2FD00E9B0F990020984703000B4345
:1010E00028D004000D1E0DDA0098019902000B00B3
:1010F000121BAB41994213D818D000920193039B65
:101100009A465DE700F0F4FA24184D4123002C00C4
:1011100000930194A94203D8F1D1009B9842EED9E3
:1011200001235B42DC1700930194E8E700999142A8
:10113000E3D9F5E70020AAE7FFFFFF0FF8B5426803
:101140000400EFF3108572B61368002BFCD0BFF3D8
:101150005F8FFF232068CEB2427B0B40B24208D0A3
:1011600007685A00BC46D2186244033A9278002AB3
:1011700011D0E268090A94466344013B1B78C9B266
:101180008B420ED000206368BFF35F8F00221A608D
:1011900085F31088F8BD23698B42F3D122610020CA
:1011A000F1E7310000F0B8FEEDE7C046F0B54E467D
:1011B0004546DE465746E0B585B01099060088469C
:1011C0001100194300D1F3E0D817070057403C0045
:1011D00007005F4001003D00241A8D4141460E98F2
:1011E0000A600F9A4B608E6008614A6100F080FAD5
:1011F00024184D4123002C0000930194A94200D9EA
:10120000E5E000D1DFE00023994643460025B046E3
:101210001E00109343465B68EFF3108A72B61A689B
:10122000002AFCD0BFF35F8F43461F68BC7B002CB5
:1012300063D063001B19DA1E94463B680392634433
:101240005A78BA73002A00D1FA734A469A705A70D3
:101250001A7042469268634B94460099019AE318CB
:101260001B01634419605A605F4A49469A60039AB9
:10127000DE6094463B6863449970597019707B7BBB
:101280009B46002B00D183E0190022007B68B868E0
:1012900098475B465B005B44033B002800D16DE050
:1012A00003993A688C465946D3186244917019786C
:1012B000002900D085E01C705B467B735C4568D0DC
:1012C00043464246DB6852681B19013B1B78BFF35B
:1012D0005F8F494611608AF31088002D1BD1B046FC
:1012E0001B021C43013543462800DC6005B03CBCB2
:1012F00090469946A246AB46F0BD10964646109BD6
:1013000098467368BFF35F8F1C608AF310880124CE
:1013100000256442E7E7300033699847071E02D191
:10132000B0460024DFE7326873681100194354D0D7
:1013300014001D1E0CDA0098019902000B00121B0C
:10134000AB4199420FD812D03D000092019361E762
:1013500000F0CEF922002B0012184B41994202D81E
:10136000F2D19042F0D901225242D317ECE7009912
:101370009142E9D901225242D317E5E73968039A2D
:10138000CB188A189C701178002916D15B4613700F
:101390007C734346187D009A019B00F00BFA051EF2
:1013A00000D18DE743462100186800F0B5FD87E7BE
:1013B000012400250122002310E759705B461370B9
:1013C000E6E7517077E7009B984200D81BE70123BE
:1013D0005B42DC170093019415E7B0463D00002402
:1013E00081E7C046FFFFFF0F050C0010F0B50400B9
:1013F0000D0006267642F717C64636196F4100B52E
:1014000084B08F4214D811D000F072F932003B0042
:10141000121A8B41002B15DC002B3ED02000290036
:1014200000F072F904B004BC9046F0BD8642EBD9DE
:101430000026002700F05CF932003B00121A8B41B5
:10144000002BE9DD002302930193154B320000933A
:1014500014483B00FFF7A4FD0028DFDB002398467B
:10146000BC46114A114F7B6A9C4504D8B96AB14207
:10147000D4D29C45D2D11168EFF3108072B60B68BC
:10148000002BFCD0BFF35F8F1368BFF35F8F414623
:10149000196080F3108820BFE5E7002ABED0D1E7AD
:1014A000210C0010B4030020487F012000400540BB
:1014B000F0B5C64600B584B004000D0000F018F980
:1014C00024184D41A9421DD81AD006267642F71796
:1014D00036196F41AF4251D90026002700F008F9B4
:1014E00032003B00121A8B41002B19DC002B42D03A
:1014F0002000290000F008F904B004BC9046F0BDBB
:10150000A042E2D907267642F71700F0F1F8320040
:101510003B00121A8B4101246442E517002BE5DDE4
:10152000002302930193184B3200009317483B00AD
:10153000FFF736FD0028DBDB0023BC469846144944
:10154000144A4B6A9C4504D8886AB042D0D29C4564
:10155000CED11068EFF3108372B60768002FFCD06D
:10156000BFF35F8F1068BFF35F8F4746076083F359
:10157000108820BFE5E7002ABAD0D1E7AF42ADD14D
:10158000A642A9D8AAE7C046210C0010B403002047
:1015900000400540487F012070B5060000F0A8F823
:1015A000FA2204000D00920000233000002103F015
:1015B00065FB001969418D4205D802D0FFF716FF7F
:1015C00070BD8442FAD901204042C117F6E7C046F7
:1015D000002370B584B0114E02930193104B0500A7
:1015E000009302000B0030000C00FFF7D9FC00282C
:1015F00004DD20BF01003000FFF7A0FD094A0020F4
:10160000536AA34203D3926A0130AA4201D304B0C1
:1016100070BD1C1B601E8441E0B2F8E7B4030020DB
:10162000210C001000400540F0B5C64600B5EFF3B0
:1016300005833F22134018001038EFF3108772B66D
:101640001F4D2A68002AFCD0BFF35F8F01221100D2
:101650008140884644461B494C631B4C2678A4466F
:101660003400C440224015D04C6A184982005158B9
:101670008C4217D3164BD25843469E4363461E7086
:10168000BFF35F8F00232B6087F31088002A06D0FA
:10169000904704E0BFF35F8F2A6087F3108804BC93
:1016A0009046F0BD0B4A9B00944663441A681A604A
:1016B000BFF35F8F00232B6087F31088EFE7C046EE
:1016C000280100D0004005408C7F0120587F012078
:1016D000F4110020D03F054010B50100024A034834
:1016E000FFF7D4F910BDC046A48F0010897F0120F8
:1016F000044A516A00E01900906A536A9942FAD18B
:101700007047C04600400540064A536A9942FCD8DB
:1017100007D1044B02E05A6A914202D19A6A82428E
:10172000F9D370470040054070B504000D00EFF399
:10173000108672B61A4A1368002BFCD0BFF35F8F75
:10174000002D1BD0200000F059FE164988420AD017
:10175000200000F05BFE0121200000F035FE012397
:10176000A340114A1360114BA400E550BFF35F8FF3
:1017700000220B4B1A6086F3108870BD0B4BA20041
:10178000D5500122A2400A4920000B7893430B70E8
:10179000044900F065FE0021200000F015FEE5E799
:1017A000280100D02916001038600540F4110020EF
:1017B0008C7F0120F0B5D6464F464646324CC0B528
:1017C000656A00E00D00A66A616AA942FAD1AB42DF
:1017D00009D806D0012420001CBC90469946A24698
:1017E000F0BDB242F6D9EFF3108972B6274C2168EA
:1017F0000029FCD0BFF35F8F0126254986408C4627
:101800000978244D0F0037438846F9B28A4661466D
:1018100054460C701C49041DA4004E6362508400A1
:1018200063510D6A002435421AD04D6A00E025004C
:101830008F6A4C6AAC42FAD1AB4219D801D1BA4294
:1018400016D8C2451DD0104B134A1E625E631F237B
:1018500018401E3B834013606346424601241A70C1
:10186000BFF35F8F0022094B1A6089F31088B2E73B
:101870000024BFF35F8F0022044B1A6089F31088A5
:10188000A9E70124ECE7C04600400540280100D04C
:101890008C7F0120587F012080E200E010B5EFF33B
:1018A000108472B60A490B68002BFCD0BFF35F8F1F
:1018B00001238340074A0848136202789A43027062
:1018C000BFF35F8F00230B6084F3108810BDC04608
:1018D000280100D0004005408C7F0120024B9C462F
:1018E00061448900016070474000003410B5040075
:1018F000FFF752F901002000FFF7F0FFFF232371EB
:10190000BFF35F8F10BDC04610B50400FFF744F968
:1019100001002000FFF7E2FFFF23A380BFF35F8FEA
:1019200010BDC04610B504000120FFF741F9044B7B
:101930009C46604480002060BFF35F8F10BDC046AE
:101940004000003470B506000D00140000291ED0C0
:10195000002A1ED073688068984763006A001B19CC
:101960005219033B033A3168002808D0CB188A1873
:101970009D70117800290ED11470280008E08A1893
:10198000CB1894701978002900D051701D70200078
:1019900070BD0800FCE7597028001470F8E7C046D5
:1019A000F0B5DE4657464E464546E0B58360002317
:1019B00089B04260026806914373C9B20133059150
:1019C00001738373C1730492012900D8A4E00A0053
:1019D0004B1ED9B2931E0791072B00D8AEE000250D
:1019E000CB080393049B564C591C564B56489B46B8
:1019F000564B9A46564B9C46564B0293524663466C
:101A00005F465E4662401A40504B2740FB185A40E2
:101A10000640534601966646434033404B4E0A709B
:101A2000B046019E0135B146C8444646734016048F
:101A3000360ECE701602120E4A721A04120E0B7374
:101A4000CA731A021B0E4B75029B360E5C4063462E
:101A50001C40404B120E9846029B47445840634638
:101A600018404B4643445840039BEDB28E718A7434
:101A70007C401831AB42C1D1079907230A009A4331
:101A8000531CDBB2914247D0049C5A00A446D218A2
:101A9000591C6244059DC9B2033A51708D423BD92D
:101AA0004A005218981C6244C0B2033A50708542F2
:101AB00032D942001218D91C6244C9B2033A51709B
:101AC0008D4229D94A005218181D6244C0B2033A07
:101AD0005070854220D942001218591D6244C9B283
:101AE000033A51708D4217D94A005218981D62442A
:101AF000C0B2033A507085420ED942001218D91D67
:101B00006244C9B2033A51708D4205D94A00521855
:101B10006244033A08335370FF23069A1340590076
:101B2000C918049B9C460023614403394B7009B0DB
:101B30003CBC90469946A246AB46F0BD0123A3E7C4
:101B4000010203047F7F7F7F050607080101010171
:101B5000808080800808080870B50400002907D03C
:101B60004B0000685B18033BC3185A78002A01D168
:101B7000080070BD5500AD18033D4019002546789A
:101B800045705D702000FFF7DDFE3100050020008C
:101B9000FFF7E2FF290002002000FFF7D3FE01005B
:101BA000E6E7C046F0B54E464546DE465746E0B548
:101BB0000E0074000168A41985B0033C01920A1953
:101BC0000500107800284CD043001B18033BCB18AD
:101BD0005F78BC46002F16D1019C002C3ED0EC7BD8
:101BE000002C04D063001B19CB18033B5E70EE730E
:101BF00000282FD10023537005B03CBC9046994675
:101C0000A246AB46F0BD7A006244033A89184A788E
:101C1000934600224A7090465A7001003A0028000C
:101C2000FFF790FE5B468146002B07D05B002968DA
:101C30005B44033BCB185A78002A16D15A464946D2
:101C40002800FFF77FFE2968019B0A19002BC6D1E7
:101C50000028CFD043001B18033BCB1800219970FC
:101C6000C8E7019B002BBAD1C4E7500080180338A5
:101C700009184878824640464870587059462800EE
:101C8000FFF760FE53468346002B07D05B002968B0
:101C90005344033BCB185A78002A06D15946524682
:101CA0002800FFF74FFE8346C8E75000801803382E
:101CB000091840464F7848705870514628000297DE
:101CC000FFF740FE8246002F08D0BC467B00296803
:101CD0006344033BCB185A78002A06D15146029A36
:101CE0002800FFF72FFE8246D8E7500080180338FF
:101CF000091840464F784870587002992800039799
:101D0000FFF720FE8046002F08D0BC467B002968E4
:101D10006344033BCB185A78002A06D1039A414604
:101D20002800FFF70FFE0290D8E703205043033846
:101D3000091800204F784870587003992800FFF761
:101D400001FE390002902800FFF706FF0299020009
:101D50002800FFF7F7FD0390E0E7C046F0B54E46D8
:101D60004546DE465746E0B5467B050074000068F0
:101D7000A419033C85B002190191117800294ED0B5
:101D80004B005B18033BC3185F78BC46002F18D18B
:101D9000019C002C40D0EC7B002C04D063001B196C
:101DA000C318033B5E70EE73002931D1002330006D
:101DB0005370697305B03CBC90469946A246AB4649
:101DC000F0BD7A006244033A8018427893460022BC
:101DD000427090465A7028003A00FFF7B3FD5B4608
:101DE0008146002B07D05B0029685B44033BCB187E
:101DF0005A78002A17D15A4649462800FFF7A2FD13
:101E0000019B010028680219002BC4D10029CDD004
:101E10004B005B18033BC31800209870C6E7019B7A
:101E2000002BB8D1C2E75000801803380918487851
:101E3000824640464870587059462800FFF782FD98
:101E400053468346002B07D05B0029685344033B6D
:101E5000CB185A78002A06D1594652462800FFF777
:101E600071FD8346C7E750008018033809184046C3
:101E70004F7848705870514628000297FFF762FD6E
:101E80008246002F08D0BC467B0029686344033B90
:101E9000CB185A78002A06D15146029A2800FFF73B
:101EA00051FD8246D8E75000801803380918404693
:101EB0004F7848705870029928000397FFF742FD49
:101EC0008046002F08D0BC467B0029686344033B52
:101ED000CB185A78002A06D1039A41462800FFF70A
:101EE00031FD0290D8E70320504303380918002041
:101EF0004F784870587003992800FFF723FD390088
:101F000002902800FFF728FE029902002800FFF740
:101F100019FD0390E0E7C04670B5040000292CD0FD
:101F2000437B8B422ED005684800401803382818A0
:101F30008278002A21D053009B18033BEB181A78B3
:101F40008A4202D11BE0002A08D053009B18033BB1
:101F5000EB185A788A42F6D142785A70002301224F
:101F6000837043702000FFF71DFE617B020020009C
:101F7000FFF7E8FC6073012000E0002070BD4278AC
:101F80001A70EBE701221900FFF70CFE60730120C5
:101F9000F4E7C0462D4B2E4A70B51A602D4A2E4BE1
:101FA0002E491A6010008B689843FBD12C4C2D4BA6
:101FB0009C4209D2013B1D1BAD080135AD002D1916
:101FC00008CC9847AC42FBD100F098F8264A224B47
:101FD0001A60224A9368DB018033FBD14022234BF5
:101FE000234D24489A675A671A67DA66A84205D3D0
:101FF0000EE0FFF789FC2000AC4209D20400036820
:102000000834002BF5D1FFF771FC2000AC42F5D36A
:10201000194C1A4DA168C022280002F0B3FEA56039
:10202000FEF7ACFD00F054FBFEF784FF144C154B9B
:102030009C4209D2013B1D1BAD080135AD002D1995
:1020400008CC9847A542FBD170BDC04600E00040D7
:10205000BFCDFBFEFE7F3C0000F0004000C0004012
:10206000E00C0020F00C0020FFFFFF0100F0014019
:10207000E00C0020D80C002000ED00E00000002063
:10208000F00C0020FC0C0020094A1368002B06D03D
:1020900008491818884208D8106018007047064B85
:1020A0000449181813608842F6D901235B42F4E70B
:1020B000B8130020000004205482012000BEFDE778
:1020C0000FB400B5084883B003F016F8049B002B4A
:1020D00007D005A91800019101F028FF034803F07B
:1020E0000BF800BEFDE7C046D48F0010E48F00104F
:1020F00010B50148FFF7E4FFC88F001030B50C2081
:1021000083B000F049FBFEF731FD00280ED0944B60
:10211000944A1A605A609A60DA601A615A619A6148
:10212000DA611A62904A5A6203B030BD8F4CA067E0
:1021300000F086FB01228E4B1A60636C012BFCD1F0
:1021400003228C4B1A60894A936B012BFCD1022429
:102150000533894A01218948009400F0CBFA052310
:10216000874A00940121874800F0C4FA864B5A68D8
:10217000FF2A02D8802252005A608022784C7D4B80
:1021800021691201804D1A60002905D0606901F0B3
:1021900043FF01300138FDD1E0217B4B02201A685A
:1021A0001140802252012A431160196848400321DE
:1021B0000140116004219A681142FCD080228021E4
:1021C00092012A4309011160802252005A606F4B2C
:1021D00023616F4B5968FF2900D85A6003226C486D
:1021E000634B01211A60020093681942FCD0E0257C
:1021F00013681D4080235B0103431D6012684A4041
:102200000321114019600221614A93681942FCD0F0
:10221000802380219B0103430901196080215D4BCC
:102220004900516063615C4B5A68FF2A00D85960CD
:1022300080225A4BE1691201574D1A60002905D0DE
:10224000606901F0E9FE01300138FDD1E022524918
:102250000B681A4080235B012B431A608023802285
:102260009B012B4312011A6080223E4B52004A60B0
:10227000E3614B4B5968FF2900D85A608022494BD3
:10228000216A1201464D1A60002905D0606901F0EB
:10229000C3FE01300138FDD1E02241490B681A40EC
:1022A00080235B012B431A60802380229B012B43F8
:1022B00012011A6080235B004B602A4B3A4A23626A
:1022C0003A4B5968914201D801325A608022384B0A
:1022D000616A1201354D1A60002905D0606901F06C
:1022E0009BFE01300138FDD1E02230490B681A40D5
:1022F00080235B012B431A60802380229B012B43A8
:1023000012011A608023DB024B60174B6362294B7A
:102310005A68FF2A02D8802252005A608022264B37
:10232000A1691201234D1A60002905D0606901F0EE
:1023300073FE01300138FDD1E0221E490B681A40BE
:1023400080235B012B431A60802380229B012B4357
:1023500012011A6080235B004B600E4BA361E3E621
:102360000C130020006CDC021BB700000080004052
:102370003CB0004030B00040002F6859008002405F
:1023800000389C1C00C0024030800040001BB70099
:102390003C800040405973075480004054B00040D6
:1023A0006080004060B00040FFFF03006C80004090
:1023B0006CB000404880004048B00040014B8000B5
:1023C000C05870470C13002001238340002904D01B
:1023D000034A1360034A13607047034A1360FBE724
:1023E00080E200E000E100E080E100E001238340C2
:1023F000014A13607047C04600E200E0024B103013
:102400009B688000C058704700ED00E070B50D007B
:10241000EFF3108672B60F4A1368002BFCD0BFF39F
:102420005F8F0D4B10309B6884001B590B4A934201
:1024300003D09D4201D0FFF75BFE074B9B681D5107
:10244000BFF35F8FBFF35F8F0022024B1A6086F3EA
:10245000108870BD240100D000ED00E0CD01001017
:10246000F0B54546DE4657464E46E0B50D0083B012
:10247000EFF3108A72B65C4A1368002BFCD0BFF3EE
:102480005F8F1022914681444A46584B96009B68C4
:102490009C59574B98469C4205D0AC4216D0554F9C
:1024A000E31B2F2B14D9514B9B689C51BFF35F8FBB
:1024B000BFF35F8F00224C4B1A608AF3108803B081
:1024C0003CBC90469946A246AB46F0BD1C00EAE7EC
:1024D000012383409B465A46474B1B681A40009293
:1024E0005A46464B1A60BFF35F8FFDF7BCFE019062
:1024F000002803D0814501D0FFF7FAFD0123220017
:102500009A433F4B06209C4613006146DB1B5B4110
:102510005943090D93688C4610569D420AD14EE0EE
:1025200043001B1806209B00FB1899681856A94207
:102530000FD01A000028F3DA009B002B05D05A4672
:10254000304B1A602C4B1A60ADE75A462B4B1A6081
:10255000A9E7002821DB4200111889007D18884670
:10256000A9689960E979D97106216956997100299C
:1025700022DBAD88F91A6D052D1545444919E02572
:102580000905490D2D022943998012181E4B92000E
:10259000BF181A781870BA71CEE70199002914D1C2
:1025A000002A1FD0FF20907118489080164A10789A
:1025B000987163461370BFE7BD210902E4E7130079
:1025C0000028C8DA019A002A0CD0114A1149D21AFF
:1025D000083A5002400D014399800F4952080A43BE
:1025E000DA80A9E74446E1E7240100D000ED00E0ED
:1025F000CD010010DC03002000E100E080E100E0FC
:10260000AAAA000080E200E08A7F012000BDFFFF4F
:102610001604002000F0FFFF00F8FFFFF8B50125C9
:1026200004000543FDF71FFEEFF3108672B6214A42
:102630001368002BFCD0BFF35F8F1F4B1F4A210094
:10264000C91A49414A43120D1D4980008F6852B290
:102650003F58AF421CD00621595691421CD012213E
:102660005956914222D01E215956914220D02A21FA
:1026700059560320914210D0124B19781A70A1714B
:10268000BFF35F8F00220B4B1A6086F31088F8BDF2
:102690008B680D491950EFE70020410009188900A7
:1026A0005B18FF21997109499980E5E70120F4E75A
:1026B0000220F2E7240100D0DC030020AAAA0000D7
:1026C00000ED00E08A7F0120CD01001000BDFFFF7A
:1026D000054B064A1360064A136053609360D3604B
:1026E00013615361936170478080808000E400E053
:1026F00004E400E0F8B504000C201E0017000D00F3
:1027000001F08AFC4201121A9101891AC9000918C4
:102710008901380001F080FC069B226836041B0307
:102720003343002A21DB184A184EA21851424A416D
:10273000802149018C4652420A40154962440A6090
:1027400014490A601700B1688F43FBD1C021221DD4
:102750008901114321222560A0600A602268002AB5
:10276000FCDAE36008230B60F8BD3F2221680A40D1
:10277000AA42D8D1A2681205120D8242D3D1E268D2
:10278000002BD0D1F0E7C0460040FDBF00C00040A4
:1027900000E0004000F000408023024A9B00034319
:1027A000D36270470080054010B580241B4BE405C0
:1027B0001C6000282BD00123194C1843194BDC61F5
:1027C000194C44401C62596298628021134BC90520
:1027D0001960164816490860E021C9041960002AEA
:1027E00004D18022134B12061A6010BD53019B1AAC
:1027F0009B009A18104B12019A420BD80F4B1A608B
:10280000084B5A6080220B4BD2051A60EDE7054B4E
:10281000D861DAE7094A13601A00F1E700B0054011
:10282000D3C007B0008005402D3FF84FFCFF0100EA
:102830000820014000A00540FFFFFF00207F01208D
:10284000AA23064A1B0113602F230549D360054BB9
:1028500019605368002BFCDA7047C0460040024004
:1028600000B0FA00006002409A4200D288547047DB
:102870007047C046F8B557464E464546DE46E0B579
:1028800099460A9B07009A460D9B884693460B9EE5
:1028900015009B070FD10C9B9E420CD29D1B0E0076
:1028A0005D44541C4B4631002020B8472200A5420D
:1028B000F7D1B0460B9E002E28D04446AD195346A2
:1028C000AA1B013E985D21004B46B847002EF6D169
:1028D00023002C0098460D9B9B0710D55B46E51AFC
:1028E0000C9BAB420BD946462200984601344B461E
:1028F000310020200135B8472200A845F6D8200035
:102900003CBC90469946A246AB46F8BD2C00E2E797
:10291000F0B54F464646D646C0B584B098460EAB95
:102920001B7894469946129B0D9C109F119E9A0706
:1029300024D401221A409246002E62D1BC420CD20D
:102940001F2C00D9B8E00C9A551E302201E0202C33
:1029500003D001342A55A742F9D85246002A0DD097
:10296000A6420BD9202C5AD00C9A551E302201E0D9
:10297000202C54D001342A55B442F9D1DA0632D58C
:102980005A0555D4002C4FD10F9A102A00D18CE053
:10299000022A00D17EE030220C9C22704A4601249B
:1029A000002A25D02D220C9D2A55013403930C9B1F
:1029B00002960093019443466246FFF75BFF04B022
:1029C0001CBC90469946A246F0BD202CEED00C9A35
:1029D0001519013478222A70202CE7D030250C9A62
:1029E000121915700134202CE0D04A46002AD9D1A2
:1029F0005A0728D41A07D9D520220C9D2A5501340C
:102A0000D4E7002A24D04A46002A28D10C321A42A0
:102A100025D1BC42A4D21F2C95D9202E1DD920240B
:102A2000DA06C3D55A0503D4A7421AD0B44218D047
:102A30000F9A102A1FD0022ACED1202CB6D00C9A81
:102A4000121901342EE02B220C9D2A550134ADE7DA
:102A5000BC4293D21F2C00D875E720248EE7013E9C
:102A6000D7E7621E002A10D00F9D102D2DD0022D09
:102A700015D01400B2E79A06A7D5202C96D0582579
:102A80000C9A121915700134A6E70F9C102C15D062
:102A9000022CEED162220C9C227001249EE70C9D38
:102AA000AA4652446225157096E79A06E7D4782222
:102AB0000C9C2270012491E720244EE79A06F6D55B
:102AC00058220C9C2270012488E7023C9D06D6D433
:102AD0000C9D2D1914007DE710B5002800D110BD04
:102AE00002F0B8FAFBE7C04610B5002803D04A68E8
:102AF0000B681100984710BDF0B5454657464E4645
:102B0000DE46E0B59BB0249D259C8246884609920E
:102B100099462A0023002800210001F046FD0028E4
:102B200000D0CBE00122D94B52422800210001F015
:102B300037FD002800D0C1E00122D54B52422800C9
:102B4000210001F01FFD002800D0B7E00022002383
:102B50002800210001F016FD002800D0EDE1AB4671
:102B600008948023289ADB001A40119201D1062391
:102B700026935B460C9380235946289A1B011A40E2
:102B8000089B10920B4300D0AFE0002A00D0BFE1B9
:102B900004260D930E930C9300230A93279BB342B4
:102BA00001D99B1B0A930227289B1F4005D0734223
:102BB00073410A9A5B421A400A920C9B002B07D081
:102BC000584608990D9A0E9B01F07BFC83460891AC
:102BD000002200232800210001F0D4FC002805D0A9
:102BE000802000068446089961440891289AA94BE0
:102BF000414613405A4604930A9B50460393269B32
:102C00000293089B009201934B46099A00F0A2F9A7
:102C1000002E63D0289B02009C061F23E4179C43D0
:102C20006534431C089320004B464146D0470C9B1B
:102C30000024DA179D18DB0F9B46731E55400C933A
:102C400002E00500202C11D00AAA94461F2301346B
:102C500063440A2128001E1901F0DEF93031317079
:102C600028000A2101F0D8F9092DEAD80523069396
:102C70000C9B01940593002304930A3303935B4652
:102C8000029312AB0093089A4B4641465046FFF719
:102C90003FFE002F22D0099BC41A279BA3421DD9B7
:102CA000020057461E00551C4B4641462020013469
:102CB000B8472A00A642F6D828000FE0289B2A0031
:102CC0000493279B41460393269B5046029323007F
:102CD000009201934B46099A00F03CF91BB03CBCB2
:102CE00090469946A246AB46F0BD6B4A089B944677
:102CF0005800400D604401F06BFC684A684B01F0DD
:102D0000FEFB684A684B01F0D3FB089B674A1B0334
:102D10001B0B1A4306000F000C981100644B002295
:102D200001F0BDFB634A644B01F0E9FB02000B00BC
:102D30003000390001F0BCFB01F062FC0C9001F0A6
:102D400047FC5E4A5E4B06000F0001F0D8FB0022F4
:102D50005C4B01F0ADFB01F053FC5B4A5B4B0D900B
:102D60003900300001F0CBFB06000D980F0001F098
:102D70002FFC574A574B01F0C2FB02000B003000FA
:102D8000390001F08CFB02000B000A900B9101F05E
:102D9000B6FB06000F000A980B9902000B0001F029
:102DA00087FB00220E900F914B4B3000390001F051
:102DB00088FB0022494B01F07BFB02000B00300036
:102DC000390001F07EFB0022454B01F071FB02004F
:102DD0000B003000390001F074FB0A9A0B9B0F00C6
:102DE00080210600C905002001F059FB02000B00FC
:102DF0003000390001F05CFB3A4F02000B000E98E6
:102E00000F9901F05EFB0022284B01F051FBBC46FC
:102E10000D9A624416000022330501F070FB070092
:102E20000D900E000E9102000B005846089901F01B
:102E3000A9FB00285ED13B003200C6260C99633105
:102E40008E42B641109976420436002900D1A3E69D
:102E5000134361D0089F244A244B5846390001F09F
:102E600097FB002807D00022214B5846390001F07B
:102E700089FB002850D1269B002B00D18CE6119BAA
:102E80005A1E9341269AD31A269385E6FFFFEF7FB9
:102E9000FFFFEFFFFFF7FFFF01FCFFFFFB799F50F4
:102EA0001344D33FB3C8608B288AC63F0000F03F6D
:102EB0000000F83F61436F63A787D23F71A3790990
:102EC0004F930A400000E03F1655B5BBB16B02407E
:102ED000EF39FAFE422EE63F00002C40000024406D
:102EE00000001840FF0300002D431CEBE2361A3FA0
:102EF00080842E410C9B0022013B0C930D98144BB7
:102F00000E9901F0DEFA03000D900A000E9194E78D
:102F100000230D930E930C93269B19000C9B994252
:102F200013DDCB1A013B26938023289ADB001A433A
:102F30000023289200260C932EE680231B069C4635
:102F4000A4446346AB4608930BE600232693EBE7C5
:102F500000002440F0B5DE4657464E464546E0B5F3
:102F600097B08046894692469B46209A219B100046
:102F7000190001F01AFB002800D01FE220982199C7
:102F80000122CC4B524201F0FDFA002800D03EE174
:102F9000209821990122C84B524201F001FB0028E0
:102FA00000D0E7E0209821990022C44B01F0F8FA04
:102FB000002800D0C7E0209821990022C04B01F0E2
:102FC000E1FA002800D0BEE02098219900220023D9
:102FD00001F0D8FA002800D0E1E0002380240D930E
:102FE000249BE4001C4000D0E9E000220626B54BFB
:102FF000069207930EAB08932098219901F000FBED
:1030000007000C9001F0E4FA02000B0020982199CF
:1030100001F045FA069A079B01F071FA0A900B91AC
:1030200001F012FB0500099001F0CEFA02000B003E
:103030000A980B9901F033FA0022A34B0A900B91E6
:1030400001F0AEFA002800D148E12B00013318004E
:10305000099301F0B9FA069A079B01F099FA002842
:1030600004D03B0001330C9300230993002E00D0C1
:10307000D5E00C9D280001F0ABFA02000B0020986F
:10308000219901F00CFA00228F4B06000F0001F08D
:1030900079FA002808D100228B4B3000390001F06A
:1030A0007FFA002800D17EE1202C00D1FAE00C9FAD
:1030B0000A21380000F088FF089E30313155380071
:1030C0000A21651C00F080FF002800D180E1202D3E
:1030D00000D1E7E00A2100F077FF30317155380068
:1030E000642100F071FF0234051E14D0202C00D1A1
:1030F000D8E008AA944617232800634401340A2123
:103100001E1900F061FF3031317028000A2100F0F3
:103110005BFF051EEAD10323249A1340012B00D143
:10312000ECE0202C00D1C2E00D9B002B00D111E17E
:103130002D23089A651C1355249B01950393239B0B
:103140000293089B20E0249B52460493239B49460C
:103150000393229B40460293209B219C0093019461
:103160005B46FFF7C9FC17B03CBC90469946A246A7
:10317000AB46F0BD249B5B070ED40322534B24992E
:103180000192039123990291009352465B4649466E
:103190004046FFF76FFBE6E74D4B0422EFE7209A2E
:1031A000219B0020002101F07AF9012380240D9356
:1031B000249BE400209021911C4000D115E7229B24
:1031C000092B00D808E1190030230EAA4E1E0892E0
:1031D0001370092E00D1F9E0537008AA0C00944630
:1031E0008E1E1721093C02236144302205E0013381
:1031F000CA54013E202B00D1A3E09C42F7D1354BAD
:10320000F2009B181A685B6806920793F4E6249B09
:103210000393239B0293042301932F4BB4E7202CA9
:1032200040D0099D731E0A212800069300F0F4FE89
:10323000089B3031195528000A2100F0EDFE671C6B
:103240000995092D00D892E0202F2BD0B11E0691B0
:103250000A2100F0E1FE089B3031D955099864211C
:1032600000F0DAFE099AA51C0700632A00D87FE067
:103270003419013C14E0631B08AA069394461723F3
:10328000013563440A2138005E1900F0C5FE303173
:10329000317038000A2100F0BFFE092F68D90700FD
:1032A000202DE8D10323249A1340012B25D020257B
:1032B00042E7C046FFFFEFFFFFFFEF7F65CDCD4147
:1032C00065CDCDC180842E410000E03FC891001043
:1032D000CC910010E0910010D891001000220A98C3
:1032E0000B99494B01F04EF9002800D0BEE62B1E89
:1032F00060D1099B01330993B8E62024239B002B5E
:1033000000D10EE70D9B002B03D1249A0C331342FE
:1033100002D0239B013B2393239BA34200D800E7C9
:1033200008AA9446172330226344202CBFD0239947
:1033300001341A558C4200D1F3E6202CF7D1202518
:10334000FAE6324BF2009B185C681B680693079400
:10335000202451E6249B5B0720D4249B25001B07D7
:1033600000D4E9E62023089A01351355E4E63D0030
:10337000202D97D008A98C4617230698634442193C
:103380003021002826D001355955202D30D0AA42B1
:10339000F9D12E230899541C8B5485E62B23089AC7
:1033A000651C1355C8E60123AC462B409C4463467C
:1033B0000C9379E6DB0700D458E69AE7249B039345
:1033C000239B029303230193114BDDE6012416E7AF
:1033D0002C00A0E62A00DCE7DA001E000B4B9B184D
:1033E0005C681B68069307940EAB0024089303E601
:1033F0000323249A1340012B00D09DE6239B002B2E
:1034000000D199E620247DE70000E03FE091001024
:10341000D4910010F0B54546DE4657464E46E0B51D
:10342000A1B01D002A9B90460B93BD4ABD4B0A904C
:103430008B461A60002900D10DE2002328789A46B5
:10344000002861D0B84B56469946C24609E0741C24
:10345000320053460A9E5946B04726002878002875
:1034600050D001352528F2D1042328789846023B14
:103470009C460300203B691CDBB200240A00102B91
:103480000ED84F469B00FB589F4601230D001C435E
:103490002878691C0300203BDBB20A00102BF0D90E
:1034A0000300303B092B41D900272A286AD000238A
:1034B0000C932E2851D00300683BDBB2122B5FD84F
:1034C0009A499B00CB589F4663460D001C43DFE79B
:1034D00043460D001C43DBE710230D001C43D7E7D8
:1034E00008230D001C43D3E780235B0068781C434E
:1034F000551C0300253BDBB2532BA8D88C4A9B00FC
:10350000D3589F46D046B2465246D04501D843468E
:103510005A1E4346594600200A9CA047504621B0F7
:103520003CBC90469946A246AB46F0BD002703003E
:1035300001E00D000131B800C0194000C0180B783F
:1035400030381A00303A0700092AF2D9180000234F
:10355000AA1C0C930D002E28ADD180236878DB00C7
:103560001C430300303B092B00D877E12A2800D107
:10357000ABE10300683BDBB215000132122B9FD98F
:103580001500B6E70B9B80CB002F00DA5BE1687873
:10359000AA1C0B930D008AE768786C2800D14DE2D5
:1035A00080235B001C43551CA3E780239B006878A5
:1035B0001C43551C9DE76878682800D139E28023B8
:1035C000551C1C4395E70B9B04CB98460C9B0B9218
:1035D0001078002B00D0A2E1002801D100F071FC8E
:1035E00002235B425A1C0B9B944619000D926144C6
:1035F00001E08B4206D001331A78002AF9D10B9AE8
:103600009B1A0D938023DB0023400E9305D00D9B66
:1036100019000C9B994200D90D93022323400F936C
:1036200000D140E2002800D126E20E9B002B00D101
:10363000E6E141460C9B0C9129009C190B9B5D46D1
:103640009B1B3200B8460B938B460AE05346290079
:103650000A9F561CB8470B9B985D002800D104E2D6
:1036600032009442F2D10C9B474698465B462600B6
:10367000AB461D000F9B002B00D0FDE143460B9392
:10368000ECE60B9B04CB0B93002A00D128E121230D
:103690001C43A44610A988461F240F21444400233C
:1036A000884603E0202B00D124E10A004146114066
:1036B000CFB238003730092900D807380133E05439
:1036C00011090F2AEED815E10B9B04330C93731CE0
:1036D0000D939846A30700D406E20B9B320018789E
:1036E000594653460A9CA047BE19012F00D8A7E2AD
:1036F0002B0042465546B0469A465E460A9F541CE9
:103700002B0031002020B84722004445F7D1534612
:10371000B346AA4626001D000C9B0B939EE6C046AE
:10372000153400101C7F0120E88F00102C90001031
:1037300078900010782800D152E2582800D183E117
:103740006F2800D1F3E0622800D156E31023220055
:103750009A438023DB000D922340692800D0BCE30C
:103760000A220E92002B00D146E201230D9A9A43C1
:103770000D9280240D9BA40023409C46692800D113
:10378000E7E0642800D1E4E06346002B00D094E237
:1037900080230D9A5B001A400B9B904604330F93D5
:1037A000002A00D02CE30D9B5B0600D544E20D9B64
:1037B0001B0600D488E30B9B1B881800031E00D057
:1037C0004DE20D9A1033110099430D91520500D42A
:1037D00045E2002398460D9B059706930C9B0493A6
:1037E0000E9B0393002302934346019318AB00936F
:1037F0003200534659460A98FFF78AF80F9B060095
:103800000B932BE6462800D18EE007220B9B0494F5
:103810000733934319000C9A039702920CC90A9834
:10382000009201930B91320053465946FFF792FBE9
:10383000060013E6741C320053460A9E59462520A2
:10384000B04726000AE60222687814437F42AA1C89
:103850000B930D002BE6D34B0A93EEE500230100FA
:1038600000E02A009800C01840004018517803007A
:1038700008003038551C303B0928F2D90C93080059
:10388000023218E6202302009A43472A04D18023FB
:103890001B011C4302239843452801D120231C43CC
:1038A00007220B9B04940733934319000C9A039748
:1038B00002920CC90A98009201930B913200534670
:1038C0005946FFF719F90600C8E50B9BA87802CB0B
:1038D000CA43D21711400C91EA1C0B930235EAE55A
:1038E000102321009943113319438C4600236105AD
:1038F00000D4CFE662460692082205920C9A049202
:103900001022039200220292019318AB009332001E
:10391000534659460A98FEF7FBFF06009EE500282D
:1039200000D1CDE2013B5DE620231C436DE7082377
:103930000E9322000D948023DB001340642800D0F6
:10394000CEE2002B00D010E780241300A400234017
:103950009C466346002B00D0E5E080230D9A5B0077
:103960001A400B9B904604330F93002A00D0C6E107
:103970000D9B5B0600D547E10D9B1B0600D499E229
:103980000B9B00229B5ED9175A184A401000DA0F91
:103990001492002B09D1802310220D99DB000B40DB
:1039A00091430D91002B00D050E10D9A61239206B6
:1039B00000D5412310AA1F249446DBB264440A3B7D
:1039C000159716960B9346460700A84625000E9CB1
:1039D0000AE03033DBB20136AB55A74200D231E109
:1039E000202E00D12EE107002100380000F014FB4A
:1039F000CBB20929EDD90B9A94466344DBB2EAE7CE
:103A00000B9B32009E1B33005E46AB4655469A46E2
:103A10000B970A9F2B003100541CB8475346185D82
:103A200022000028F6D1AA460B9F5D46B346260029
:103A300020E6C023A8781C4303355AE5C0239B0029
:103A4000A8781C43033554E50C2322009A43143311
:103A50001A430D92630500D5D3E080239B001C40E0
:103A6000F13BFF3BA4460E938EE60C9B47469846DF
:103A70005B46AB461D00FDE50D9B32009F4200D822
:103A8000FCE5BE19F61A2B005D469B460A9F541CA6
:103A9000534629002020B8472200B442F7D15B46A4
:103AA000AB461D00EAE50D9A531C974200D812E27E
:103AB000BB199B1A0D971F0032005E46AB460A9D4C
:103AC000541C534631002020A8472200BC42F7D1A5
:103AD0005D46B34626000D9F7B1C0D930B9B18780B
:103AE000002800D0A1E5C9E5012F00D8F0E1731E40
:103AF0003200A846DF190A9E5D460D9C00E00134A5
:103B0000534629002020B0472200BC42F7D12600AE
:103B1000AB46454601360B9B3A001878594653464A
:103B20000A9CA047F8E507220B9B07339343013219
:103B300094469C4462460B921A685B689C46DB176D
:103B400012931393129813990300534010936446F1
:103B50000B0063401193109B119C1B1A8C41109316
:103B600011946346DB0F149363461A4350D00D9AA9
:103B70006123920600D541230022DBB2904610AAB1
:103B80000A3B1F2494460F935B466444179323001B
:103B900015971696AB46109E119F44460E9D98466B
:103BA00010E0C046712800103032D2B243460134D2
:103BB0001A550023BB4200D167E1202C00D167E1F8
:103BC00006000F002A0000233000390000F066FADA
:103BD000D2B2092AE8D90F9B9C466244D2B2E5E7EB
:103BE00080231022DB0023400E920C2294430D947C
:103BF000002B00D1BDE5B8E580239B001C40A44606
:103C0000A7E610230E93B0E50B9B1B781A00BDE6C8
:103C10000D9A1023110099430D915205A7D5002349
:103C200098460D9B059706930C9B04930E9B03935C
:103C3000149B0293434667E60B9B1B781800BDE577
:103C40000D9E69E54546159FB046169E0D9B05974E
:103C500006930C9B04930E9B0393149BC3E50D9A50
:103C60006123920600D5412310AA1F249446DBB29B
:103C700064440A3B149715960B9346460700A846E2
:103C800025000E9C08E03033DBB20136AB55A7426D
:103C90000ED3202E0CD007002100380000F0BCF914
:103CA000CBB20929EFD90B9A94466344DBB2ECE717
:103CB0004546149FB046159E8DE507220B9B0733A2
:103CC0009343013294469C4462460B921A685968A9
:103CD0001300100009910B435CD10D9A10331100B1
:103CE00099430D91520555D5002398460D9B059794
:103CF00006930C9B04930E9B0393002399E70B9B65
:103D00001B68D9175A184A401000DA0F1692002B78
:103D100008D1802310220D99DB000B4091430D91B7
:103D2000002B2CD10D9A6123920600D5412310AAB5
:103D300090461F24DBB244440A3B14971596A846CC
:103D40000B932500070066460E9C08E03033DBB27B
:103D50000136AB55A7420ED3202E0CD00700210010
:103D6000380000F059F9CBB20929EFD90B9A9446E3
:103D70006344DBB2ECE74546B446149F159E0D9BA9
:103D8000059706930C9B04930E9B0393169B02933B
:103D900063462AE50D9A6123920600D5412300224D
:103DA000DBB2904610AA0A3B1F2494460F935B4651
:103DB000644414971596AB4646461693A0460E9D4E
:103DC000099F04000BE03032D2B2434601369A55C7
:103DD0000023BB4265D0202E65D004000F002A00CE
:103DE00000232000390000F059F9D2B2092AEAD99B
:103DF0000F9B9C466244D2B2E7E702230E9398E5FC
:103E00000B9B1B68181E08D1802310220D99DB0024
:103E10000B4091430D91002B2CD10D9A61239206FA
:103E200000D5412310AA90461F24DBB244440A3B2C
:103E300014971596A8460B932500070066460E9C1E
:103E400008E03033DBB20136AB55A7420ED3202E4B
:103E50000CD007002100380000F0DEF8CBB20929B1
:103E6000EFD90B9A94466344DBB2ECE74546B4467F
:103E7000149F159E0D9B059706930C9B04930E9B18
:103E80000393002302936346AFE4B54200D894E65F
:103E9000179B109611975D46159F169EA0469B4650
:103EA000BFE6A54297D9169BB0465D46149F159E66
:103EB0009B461BE70B9B1B68D9175A184A4065E5C0
:103EC00000230D93FFF79EFB0B9B1B68180075E406
:103ED00037000D9E1FE60D9302E60A230E932AE596
:103EE000140082E60EB4012210B585B007AC08CCF0
:103EF00001000094524204480394FFF78BFA05B086
:103F000010BC08BC03B018476928001000B585B084
:103F10000391012102900093034813004A4202A931
:103F2000FFF778FA05B000BDE92A001010B5094A7C
:103F300084B01468002C09D0012200910300524281
:103F400003A90548A047012004B010BD01F0D4F832
:103F50000020F9E71C7F0120D92A00100148042124
:103F6000014B1847300400208D3F0010142310B57A
:103F70000100188804331B88984710BD162310B51C
:103F80000100188802331B88984710BDF0B5C6465B
:103F900000B5002916D014230400012598461827DF
:103FA000890046184346216818883B88984701C411
:103FB000431E984140420540A642F3D1280004BC6C
:103FC0009046F0BD0125F9E7124A936F9B0815D280
:103FD0009066D166002905D0FFE7FFE7FFE7516F44
:103FE000106F704704B580210906C21751400028A0
:103FF00000D0C84304F0ACFD002104BDF0B5146E40
:10400000556E576F166FFFF7E3FF146655665767D7
:104010001667F0BD000000D0114A936F9B0813D2C1
:1040200010665166002905D0FFE7FFE7FFE7516FF3
:10403000106F704704B5002801D00020C04304F081
:1040400087FD002104BDC046F0B5146E556E576F54
:10405000166FFFF7E5FF1466556657671667F0BDE4
:10406000000000D094464E4A926F9208624601D2F8
:1040700030E0C046F0B54A4EB56F6D08FCD3346EE3
:10408000756E776F366F00F025F89446444A1466D3
:104090005566576716676246F0BDC0469446404A6B
:1040A000926F9208624601D258E0C046F0B53C4E8D
:1040B000B56F6D08FCD3346E756E776F366F00F098
:1040C0004DF89446364A1466556657671667624639
:1040D000F0BDC046002B24DB11D000293EDA00B52C
:1040E000C943404200D1013100F038F8C943404291
:1040F00000D10131DB43524200D1013300BD002A1F
:10410000EBD1002801D1002905D00020C90FC90733
:1041100001D1C043410800B504F012FD0022002384
:1041200000BD00B500290ADBDB43524200D1013358
:1041300000F014F8C943404200D1013100BDC94329
:10414000404200D10131DB43524200D1013300F043
:1041500005F8DB43524200D1013300BD002923D1D1
:10416000002B18D1002A0CD0BC460D4F38667A6659
:1041700000210023FFE7FFE7FFE77A6F386F67460C
:104180007047002801D00748010000B504F0D8FCB2
:104190000022002300BD02000B0000200021704718
:1041A000000000D0FFFFFFFF002B00D0BFE0130C8A
:1041B00028D1002AE7D080B4114F39667A66FFE72C
:1041C000FFE730B4040C7B6F396F1B0423433B665D
:1041D0007A66FFE7FFE7FFE7C04684B27B6F3D6F7B
:1041E0001B0423433B667A66FFE7FFE7C0460023D4
:1041F0002C042D0C7A6F386F00196941B0BC7047E0
:10420000000000D0F0B594460025140E01D1120232
:104210000835140F01D112010435940F01D1920019
:104220000235D40F01D152000135D40B0134254F92
:104230007C66254C3C660E0C93B2FFE7FFE7FFE778
:104240003C6F6643360C7703BE467343DF0B5B045B
:10425000C01AB941130C7343DB18C91ACE08664360
:10426000360CB64493B273431F0F1B01C01AB941F9
:10427000130C73431F0B1B05C01AB941860D8F0227
:104280003E436643360C092D24DB520A7243801AE2
:104290007703460A6643360C16235B1BDE40DF407D
:1042A000BF1964466643821B70460435063301001D
:1042B000D940A840C01900D30131A24206D2002340
:1042C000F0BD0000000000D0FFFFFFFF121B013017
:1042D000F3D3F1E709277F1BFE406446A2B2724385
:1042E000801A00D20139220C7243130C1204821A74
:1042F00099410B007046043513370100F940A8407E
:10430000801900D30131002B02D1A2420AD2F0BDA4
:10431000013000D30131121BFAD2013BF8D1A24285
:1043200000D2F0BD013000D30131121BF7E7F0B528
:104330001C0C00D080E00CB400251C0A04D11B0228
:10434000160E3343120208351C0B04D11B01160F45
:104350003343120104359C0B04D19B00960F334369
:1043600092000235DC0B02D192185B4101351C0032
:10437000971864410134464F7C66464C3C660E0CEF
:10438000FFE7FFE7FFE7C0463C6F6643360C770365
:10439000BE4697B27743C01B00D20139C01B00D282
:1043A00001399FB27743C91BC91B170C77437E04A1
:1043B000FF0B801BB941CE086643360C0C2D33DB56
:1043C000B644120B1F053A431B0B97B27743C01B31
:1043D00000D201399FB27743C91B170C77433E04C3
:1043E0003F0C801BB941860D8F023E43664329274F
:1043F0007F1BFE400C3D7746AF40BF1930BCA2B2D8
:10440000ABB272437343801A9941220C7243130C6E
:104410001204801A994102000B000137001BA941C8
:10442000F9D2781E0021F0BD0C277F1BFE40774695
:104430007F0BAF40FF19E0E700245D1C07D0144F4D
:104440007D663966FFE7FFE7FFE7FFE73C6F95B260
:104450009EB265436643401BB141150C1E0C65437B
:10446000664336042F0C3E432D04401BB141994254
:1044700004D202000B0020000021F0BD01D19042C7
:10448000F7D3801A994101349942F2D3F6E700003C
:10449000000000D0FFFFFFFF48404140484018B4F3
:1044A0001B4B5B68FC46019308BD04DF4F470010BF
:1044B00018B4174B1B68FC46019308BD00DF594731
:1044C00000109446134A926F920809D2624618B4BB
:1044D0000F4BDB68FC46019308BD0CDF114A00104E
:1044E0000C4AF0B5146E556E576F166F6246FFF7A3
:1044F000EEFF084A1466556657671667F0BD18B494
:10450000034B9B68FC46019308BD08DFB5480010CB
:10451000907F0120000000D0FFB550404240504045
:1045200059404B40594000E0FFB5154F4C00640D19
:1045300003D0BC4204D10C0314D80020090D090596
:104540005C00640D03D0BC4204D11C030AD80022D5
:104550001B0D1B0501264B4009D44B4003D58B4254
:1045600000D18242FFBD9942FCD19042FFBD0B4376
:10457000DB1803431343F5D0C9434918FFBD0000BE
:10458000FF07000000B5FFF7CFFF804100BDC04628
:1045900000B5FFF7C1FF01D9002000BD012000BD1B
:1045A00000B5FFF7B9FF804100BD012040054A007A
:1045B000121804D85A00121801D8002070470120A0
:1045C00070470020704700000021002805D1704787
:1045D000C1174840401AFAD0C90713B5064B1B68EB
:1045E00098470CBC441CA2401005120B0349091B40
:1045F00009051943114310BD447F01201F04000029
:1046000010B54C00620D8023D218DB00D21A5B0576
:104610007E2A10DD9E3A13DACC17090349081943A4
:104620005242D140640001341532202A05DAD040CC
:104630000843604310BD002010BD0846604310BD14
:10464000C80FC018013810BD18B4044B5B6AFC4693
:10465000019308BD24DFC14B00100000907F0120B2
:10466000132370B51D78012D15D010DD2648FFF7F6
:1046700085FC264C01008022200000F083FB022DE7
:1046800006D02348FFF772FC224B186070BD1F4C08
:10469000214AA264F5E71D4C1F4AA3085B421D4056
:1046A0002FD02B0022602020A9006118451B0A6032
:1046B0004A608A60CA600A614A618A61CA610A62A4
:1046C0004A628A62CA620A634A638A63CA630A6484
:1046D0004A648A64CA640A654A658A65CA650A6664
:1046E0004A668A66CA660A674A676D08102D03D152
:1046F0008A67CA67A264C4E71E339B00E250A264C3
:10470000BFE70023CFE7C04653440000907F01205D
:104710004C330000447F01201D47001007B5604660
:1047200001880A0A0230DF2AFAD1C9B2820804D30A
:10473000028840880004104300E00068014A50509D
:10474000039007BD907F01200FB403BC0CBCF0B5F3
:104750000124E407634000E0F0B50C0DCF0F661EA6
:104760003605891B640503D3C943404200D3013198
:10477000640D03D0661CF60A07D0E41B00207F00FE
:10478000791C89078912803C24031D0DDF0F6E1EE2
:1047900036059B1B6D0503D3DB43524200D3013327
:1047A0006D0D03D06E1CF60A07D0ED1B00227F00B2
:1047B0007B1C9B079B12803D2D032F1B661B58D42F
:1047C000A446202E46DA20371400BC401D00BD4010
:1047D000F24033412A4380185941CB0F05D0C943D9
:1047E000C043002264425041514162464D0D28D1E0
:1047F0000D0D07D100281FD0241940414941013A2D
:104800000D0DF9D0640006D3013000D30131002C26
:1048100001D140084000013A0BD4941CE40A04D1B1
:1048200012051144DB071944F0BDD907204B194389
:1048300000E0D9070020F0BD0029DDD1002CDBD13C
:10484000F0BD0132C6074008CD0728434908002EB5
:10485000E1D0D9E73C2E29DA203E40371400BC4095
:1048600000D00124F24014431A00BB401C43D3176C
:10487000ACE7AC46202F08DA20360400B4400D0027
:10488000B540F84039412843A5E73C2F0CDA203FDA
:1048900040360400B44000D00124F840044308002E
:1048A000B1400C43C117EAE710001900002494E757
:1048B0000000F07FF0B50C0D661E3605891BE60A78
:1048C0006405640D02D0651CED0A04D000200121AE
:1048D0000905803C2403A4461C0D671E3F05DB1B15
:1048E000E70A6405640D02D0651CED0A04D00022BD
:1048F00001231B05803C24037740644497B484B2B1
:1049000096B27443070C7E43150C6F4380B2684324
:10491000361802D3012000043F183004350C00196A
:104920007D41844688B29AB250430C0C62431F0CFE
:104930007C438EB27E43921902D301263604A41919
:104940001604170C3618674101BC81B29AB2514364
:10495000040C62431B0C5C4380B25843121802D310
:104960000120000424181004130C401863412D1872
:104970005E410020474106BC88B293B258430C0CFC
:104980006343120C544389B251435B1802D3012193
:104990000904641819041A0C091862416D1856416B
:1049A0000020474118BCF902720D1143F0026A0D54
:1049B0001043ED020A0D03D16D1940414941013BFD
:1049C000124E9B1B7600B3420ED26D0007D301300E
:1049D000002671416646354301D1400840001B0561
:1049E000C918E4072144F0BD0BDA013306D10130C8
:1049F00004D101314F0D01D04908F2E7E107002051
:104A0000F0BD013631050020EBE70000FF03000098
:104A1000F0B51C0D671E3F05DB1BE70A6405640D3E
:104A200002D0661CF60A04D0002201231B05803C3C
:104A30002403D0252D060026F6432E661E096E6639
:104A4000CE0FF619B44649004F0D02D07E1CF60A6F
:104A500003D000200021403F3F033E1BB600B4447A
:104A6000013F7F05C91B49082E6F013676089C025D
:104A7000950D25437543ED137543AD1301356D1049
:104A8000F603761B0CB4CC02450D2C43A2B2B3B294
:104A90005A43270C7B43350C6F43A4B26C431B195C
:104AA00002D3012424043F191C041D0CA4187D41C9
:104AB00024196D41009A91B2ACB26143170C7C434A
:104AC0002B0C5F4392B25A43A41802D30122120462
:104AD000BF182204230C52187B41019C6C431B1904
:104AE000520ED9010A434401A01A81B2B2B2514315
:104AF00003145A43360C734387B27743D617D2193F
:104B000000277E4136049B191704160C7F185E415E
:104B10007316ED18F301002680337541A90F06D1F5
:104B20006400690AE8055B0A184309D22FE00422F1
:104B3000944480337541A90AA8059B0A184326D3DB
:104B4000404149412404009A019B0D005543641BD8
:104B50004343E41A95B286B27543170C7E43030CA7
:104B60005F4392B25A43B61802D301221204BF180F
:104B70003204330C52197B4152429C41002C02D426
:104B80000022013051414008CA071043490802B0D1
:104B90006246D7079210084BD218084B9A4203D2AC
:104BA00012058918C919F0BD0020002A01DC39005E
:104BB000F0BD01331905F5E7FD030000FE07000015
:104BC000002200B5203200F004F8080000BD00000B
:104BD00000220B150AD410B5944600F031F81414D5
:104BE000013400DA0021CB17144C204700200021AB
:104BF00070476244343A0CD40C2A07DA040091401E
:104C0000904052422032D440214310BDD843D94372
:104C100010BD203207D40C4694405242203211413C
:104C2000D040204310BD0800C917203203D452429F
:104C30002032104110BD1800190010BDF34B0010B8
:104C40000A0DCC0F531E1B05C91A520503D3C943C5
:104C5000404200D30131520D03D0531CDB0A07D070
:104C6000121B00206400611C89078912803A12031C
:104C7000014BD21A70470000FF0300005143434329
:104C8000C9188C46110C83B24B4310B4040C614319
:104C900092B280B2504362431C041B0C001910BC3A
:104CA00059411304120CC01851416144704700006F
:104CB000132310B51C781348FFF760F9012C0BD0B3
:104CC00004DD01008022104800F05CF80F48FFF777
:104CD0004DF90F4B186010BD0B4C01005422200001
:104CE00000F050F80B4B6365A365E36523666366CC
:104CF000A366E36623676367A367E3672362E361F1
:104D0000E4E7C04653460000908001204C33000089
:104D1000447F0120194D001007B5604601880A0A3A
:104D20000230DF2AFAD1C9B2820804D3028840884F
:104D30000004104300E00068014A5050039007BD92
:104D40009080012010B5040003F084FA002804D0FC
:104D5000034B04199C4200D810BD0248FDF7B0F97E
:104D6000000004203092001001480421014B184734
:104D7000400400208D3F0010014B1B6818470000C5
:104D800040040020014B5B681847000040040020ED
:104D900010B5FFF7D7FF10BD030010B508001B6862
:104DA0001100984710BDC046F8B54746CE4680B5BD
:104DB000437C80460C001500002B43D0002A34DDD4
:104DC0000A78037C00200A2A33D0012D1ED0204B04
:104DD0000121671E994602E03100B54216D0635C9E
:104DE0007A5C4E1C0A2BF7D10D2AF5D043461B687E
:104DF000884204DA091A2018984743461B680221A2
:104E00004846984730003100B542E8D1854204DD7C
:104E10004346291A1B68201898476419013C2378D7
:104E20000D3B5A425341424613740CBC904699467E
:104E3000F8BD002BC9D14346054802211B6898479D
:104E40000120C2E70368110020009847EDE7C04643
:104E5000A0920010F8B54E46DE4657464546344B04
:104E6000E0B51C688146002C4ED0324B9A46324B3E
:104E70009B4602E0E468002C46D02368002BF9D062
:104E800052461268002A01D0A242F3D14F46627CFA
:104E900040CF002A48D0002EECDD49460979227C1B
:104EA00000200A2939D0012E1ED04B4601215D1C5D
:104EB00003E001354146464516D04B1C98462B79F8
:104EC000EA780A2BF5D10D2AF3D02368814203DD5D
:104ED000091A38189847236802215846984701351F
:104EE000404641464645E8D1864203DD311A2368F3
:104EF00038189847BF19013F3B780D3B5A42534140
:104F00002374E468002CB8D14A46002313603CBCEB
:104F100090469946A246AB46F8BD002AC3D1064842
:104F2000083998470120BEE7310038009847A1E7CB
:104F3000B0130020B4130020A09200100B6870B5CD
:104F400005000C00802B04D05A1C2260E418257147
:104F500070BD0800FFF77EFF2368F5E7F0B5DE4679
:104F600057464E464546E0B51E00D0231B0683B08B
:104F70001C68334B01AF80460D0018003900914684
:104F80009B4603F0EDFD8246002808D1019B64B2E8
:104F90009C4204D0584603F0F3FD01239A466B1C53
:104FA00003D1404603F046FC0500002E28D1254ED3
:104FB000254B1C68002C16D04B46002B22D1234FCA
:104FC00002E0E468002C0ED02368002BF9D03B6887
:104FD000002B01D0A342F4D120002A004146B04763
:104FE000E468002CF0D15346002B25D1681E854182
:104FF000E8B203B03CBC90469946A246AB46F0BD31
:10500000134ED5E7114B994602E0E468002CEAD034
:105010002368002BF9D04B461B68002B01D0A3421C
:10502000F3D12A0041462000B0470A23012239006B
:1050300020003B70B047E8E7584603F079FDD5E71C
:10504000D80C0020A94D0010B0130020B41300208C
:10505000994D0010F0B54746CE4680B583B06B46FB
:10506000DF1CD02338701B061C68204B060001A9EA
:105070001800984603F074FD051E22D01C4B1C68D6
:10508000002C2AD01B4B994602E0E468002C10D07B
:105090002368002BF9D04B461B68002B01D0A3429C
:1050A000F3D1200001223900FFF77EFEE468002CD6
:1050B000EED1002D11D1300003B00CBC90469946C2
:1050C000F0BD019B64B29C420BD0404603F058FDFA
:1050D000074B01251C68002CD4D1404603F028FD65
:1050E000E9E7034B1C68002CCCD1E4E7D80C002086
:1050F000B0130020B413002070B5040003F09AFB35
:1051000000230100050001222000FFF727FF084BC4
:105110001C68002C06D06368002B05D09847E46813
:10512000002CF8D1280070BDE468002CF3D1F9E719
:10513000B01300200D4B1A68002A13D0824203D10D
:1051400009E0984208D01A00D368002BF9D1002951
:1051500000D0D060704713000029FBD1DB68D3601A
:10516000C160F7E70029F5D01860F3E7B01300201D
:10517000F0B5C646D02300B5204EA2B01B060700EE
:105180008846300001A91C6803F0EAFC051E07D11F
:10519000019B64B29C4203D0300003F0F1FC013566
:1051A0008422002101A8FFF7E7FD43463A0001A948
:1051B0001348FEF7ABFE019B0700002B02D001A8AD
:1051C000FFF748FE0F4B1C68002C06D06368002BCD
:1051D0000AD09847E468002CF8D1002D09D1380096
:1051E00022B004BC9046F0BDE468002CEED1002D46
:1051F000F5D0300003F09CFCF1E7C046D80C00204D
:105200003D4F0010B01300200FB400B583B004A9C7
:1052100001C90191FFF7ACFF03B008BC04B0184707
:1052200010B500F037F910BD7047C0460022014BA1
:105230001A7070478B7F01204B790020FF2B0BD118
:105240008B79002B08D1CB79012B05D1082A03D902
:105250008A78024B09301A707047C0468B7F012054
:105260000120704770B5002915D11549537910797F
:1052700009781B0203430020994200D070BD537887
:10528000012B0AD0022BF9D1002064220021FDF766
:105290008BFA0120F2E70120F0E7D478917824021C
:1052A0000C430500E20502D5620A93401D00054843
:1052B000FEF75CFE7F210300214028009847C0468E
:1052C0008B7F012055420000012303700048704786
:1052D000A49200104A780B7812021A438B7810B50A
:1052E0001B041A43CB781B0613439622D200934229
:1052F00000D010BD0348FEF739FE0021030008006E
:105300009847C0465542000070B5184C82B0050061
:105310000E00200001A903F023FC002808D1D023AF
:105320001B061B68019A9A421CD0200003F028FC3F
:10533000002001F021FE002807D103256D42200046
:1053400003F0F6FB280002B070BD002001F02CFE37
:105350000028F2D029003200002001F031FE051EA5
:10536000EBD0ECE703256D42ECE7C046507F01200F
:10537000F0B54F464646D646C0B5364B82B007001C
:105380000E00180001A9994603F0EAFB002808D195
:10539000D0231B061B68019A9A4241D0484603F06D
:1053A000EFFB002001F0E8FD002831D00024002EA2
:1053B00033DD294B98469A4612E0002847D100F089
:1053C0003FFE002001F034FE002001F0D5FD002852
:1053D00023D0002001F082FE002827D0B4421CDA3E
:1053E0000020351B01F07AFE8542E6DC39192A00DF
:1053F000002001F059FE050000F022FE002001F01F
:1054000017FEFCF775F94346641918605960E5E723
:1054100000200021104B18605960484603F088FBBB
:1054200002B01CBC90469946A246F0BDFCF760F95C
:1054300053460D001A685B6800218446074812181D
:105440004B419D42E9D8C9D19445C7D9E5E705004C
:10545000CCE7C046507F0120000E002020A10700AD
:1054600010B51F20FCF7C2FFFA200021800010BDFC
:1054700010B5074C0021200003F072FB002800D17A
:1054800010BD00F0DDFD200003F052FBF8E7C04640
:10549000507F012010B51D4B84B01B7802F02CF812
:1054A0001B491F20FCF7B2FF01211F20FCF78CFFD6
:1054B0001848FCF71BFAFBF76FFD0400FCF718F91E
:1054C000FA220023920012184B41994214D811D0AD
:1054D00001210291002101910F4920000091FBF769
:1054E0005FFD0400631E9C41E4B2002808D1200047
:1054F00004B010BD9042EBD901225242D317E7E726
:1055000001210648FFF716FEF1E7C046CC940010D3
:1055100071540010507F012061540010500400208D
:10552000004870475C9300100048704708930010D3
:1055300070B5040016480378002B20D0002C18D03A
:10554000052C23D8134B1448A400E558811C0023D4
:1055500004E001330A800231132B14D0EA5CDCB280
:10556000002AF6D1C023013464009B001C43048050
:1055700070BDC1240848094BA4004380F7E71121FE
:1055800002F050FADAE7CA24A400F0E70020EFE7BF
:105590006C7F012070930010741300200904000038
:1055A000F0B5982357464546DE464E466C4AE0B570
:1055B000D75880253C006D02883B83B02C409A462A
:1055C0000FD001222321674B00205A54DA7066491C
:1055D00001F088FA8022654B92021A65644B2C0018
:1055E0009A46FB0617D480235B011F4245D18023D6
:1055F000DB011F4200D088E080231B021F4200D045
:1056000091E0BC4200D0A5E003B03CBC9046994676
:10561000A246AB46F0BD524B9B6D9846002B27D05F
:10562000524B00259B460123994643460126B84626
:105630001F0004E001357600EDB2202D17D037426F
:10564000F8D05B469E654B466C08AB436400E4189B
:10565000444B64019C466444200000F081FB002818
:105660006CD10135B743EDB27600002FE5D1474646
:1056700080235B0154461F42B9D01C430023384AA3
:1056800000211360384A3B489360D3603A4A9360E4
:10569000D3603A4A9360D360394A9360D360394A01
:1056A0009360D360384A9360D360384A9360D36084
:1056B000374A9360D360374A9360D360364A936029
:1056C000D360364A9360D360354A9360D360354ADD
:1056D0009360D360344A9360D360344A9360D3605C
:1056E000F0229200FFF748FB314B324A00211A604A
:1056F0000020012201F0CAF980221C4B12031A6516
:105700008023DB011F4200D176E701220421002023
:105710001C4301F029F91022144B1A6580231B0247
:105720001F4200D16DE70122052100201C4301F03A
:105730001BF980220D4B12011A6562E74B46A28AC3
:10574000A17800200093002301F0F4F9200000F07C
:1057500045FA86E7210018487940FCF7B1FCC046BD
:1057600000001150BC1300200000105000301150F8
:1057700010000100FC130020080010501000105011
:105780001800105020001050280010503000105009
:105790003800105040001050480010505000105079
:1057A00058001050600010506800105070001050E9
:1057B000247F0120800110508893001010B5012132
:1057C0000520FCF701FE10BD10B5002200210248A3
:1057D00000F02AFA10BDC046DC1300208022024BE4
:1057E0005202DA647047C04600201150F0B5C64638
:1057F00000B5070000F0CCF90C23354D3549AB67F7
:105800000520FCF703FE40239846334C402200213C
:105810002000FFF7B1FA43460126A383212100238C
:105820002E4A6670A260136063545F316184414602
:10583000A187023963542A4A2A496360E260A1625F
:105840000B60E262284A63629360D360274A2000BB
:105850009360D360264A00219360D360254A40308C
:105860009360D360244A9360D360244A9360D360EA
:10587000234A9360D360234A9360D360224A9360A3
:10588000D360224A9360D360214A9360D360214A57
:105890009360D360204A9360D360204A9360D360C2
:1058A0001F4A9360D360F0229200FFF765FA1D4B08
:1058B0001D4A38001A6080239B052E64EB649023F8
:1058C0001A4AEA50FFF78AFF04BC9046F0BDC04672
:1058D00000001150A1550010BC130020840010508E
:1058E00000011050800010500000105008001050AF
:1058F00010001050180010502000105028001050B8
:105900003000105038001050400010504800105027
:105910005000105058001050600010506800105097
:1059200070001050247F01208001105010D0010021
:105930000B785B0602D14B78052B00D070478A7834
:10594000014B1A60FAE7C04600001150F0B5C64698
:10595000072300B548798F780A790340C8787F21FA
:1059600080073940800F1B02FC0913434E00C2B26E
:105970009446284D32195201AA18977001276740A2
:10598000577000279383D7709077CA00012C27D0D7
:105990002148804688014244281882601760002907
:1059A00027D01E4AC9009046414441603F223F3300
:1059B00093436246022A00D15B00194936190A68EE
:1059C0007601D3180B60174BAD19EA60534062465D
:1059D000920613438022120613436A6813600EE096
:1059E00011488046880142442818826217600029C5
:1059F00009D1002364012D196B600C4BEB60012071
:105A000004BC9046F0BD074AC9009046414441623B
:105A1000CCE7C046BC130020840010500400105096
:105A2000247F012000001050800010500001105011
:105A300000231C4A10B59360D3601B4A0021936079
:105A4000D3601A4A1A489360D3601A4A9360D360AD
:105A5000194A9360D360194A9360D360184A9360DF
:105A6000D360184A9360D360174A9360D360174A93
:105A70009360D360164A9360D360164A9360D360F4
:105A8000154A9360D360154A9360D360144A9360BB
:105A9000D360F0229200FFF76FF9124B124A1A609E
:105AA00010BDC046000010500800105010001050EB
:105AB000FC13002018001050200010502800105037
:105AC0003000105038001050400010504800105066
:105AD00050001050580010506000105068001050D6
